:020000040800F2
:100000000018002041000008730000087500000877
:1000100000000000000000000000000000000000E0
:100020000000000000000000000000007D0000084B
:1000300000000000000000007F00000881000008B0
:1000400023482449244A002A05D0244BC458CC50C4
:1000500004339342FADB22482249234A002A05D07E
:100060001E4B1E4CC45004339342FBDB00F03EF8A1
:10007000FEE7FEE7FEE7FEE7FEE7FEE7FEE7FEE758
:10008000FEE7FEE7FEE7FEE7FEE7FEE7FEE7FEE748
:10009000FEE7FEE7FEE7FEE7FEE7FEE7FEE7FEE738
:1000A000FEE7FEE7FEE7FEE7FEE7FEE7FEE7FEE728
:1000B000FEE7FEE7FEE7FEE7FEE7FEE7FEE7FEE718
:1000C000FEE7FEE7FEE7FEE7FEE7FEE7FEE7FEE708
:1000D0007C0100080000002000000000000000007B
:1000E00000000020000000200000000080B500AFEC
:1000F0000F4B5A690E4B8021C9020A435A610D4BBE
:100100001A680C4B10210A431A600A4B9A69094B72
:1001100004210A439A6100F00FF8064B9A69054BD7
:100120008021C9020A439A6100F006F8EDE7C04653
:10013000001002400004004880B582B000AFFB1DF3
:1001400000221A7011E0BB1D00221A7004E0BB1DD2
:100150001A78BB1D01321A70BB1D1B782E2BF6D9E5
:10016000FB1D1A78FB1D01321A70FB1D1B78FF2B3B
:0C017000E9D1C046BD4602B080BDC046CB
:04000005080000ED02
:00000001FF
